:020000040000FA
:10000000200400201D03000025030000C508000097
:10001000290300002B0300002D0300000000000056
:100020000000000000000000000000002F0300009E
:10003000310300000000000033030000B10B00009A
:1000400037030000390300003B0300003D030000BC
:100050003F0300004103000043030000450300008C
:1000600047030000490300004B0300004D0300005C
:100070004F0300005103000053030000550300002C
:1000800057030000590300005B030000C50D00008A
:100090005F030000610300006303000065030000CC
:1000A00067030000690300006B0300006D0300009C
:1000B0006F03000071030000B10800007503000029
:1000C00077030000790300007B0300007D0300003C
:1000D0007F0300008103000083030000850300000C
:1000E0008703000089030000000000008B0300006C
:1000F0008D0300008F0300009103000093030000B4
:100100009503000097030000990300009B03000083
:1001100000000000000000009D0300009F0300009D
:10012000A1030000A3030000A5030000A703000033
:10013000A9030000AB030000AD030000AF03000003
:1001400000000000000000000000000000000000AF
:10015000B1030000B3030000B5030000B7030000C3
:10016000000000000000000000000000000000008F
:10017000000000000000000000000000000000007F
:10018000000000000000000000000000000000006F
:10019000000000000000000000000000000000005F
:1001A000000000000000000000000000000000004F
:1001B000B9030000BB030000BD030000BF03000043
:1001C000C1030000C3030000C5030000C703000013
:1001D000C9030000CB030000CD030000CF030000E3
:1001E000D1030000D3030000D5030000000000008D
:1001F00000000000D7030000D9030000DB0300006B
:10020000DD030000DF03000000000000000000002C
:10021000E1030000E3030000E5030000E703000042
:10022000E9030000EB030000ED030000EF03000012
:10023000F1030000F3030000F5030000F7030000E2
:10024000F9030000FB030000FD030000FF030000B2
:10025000010400000304000005040000070400007E
:10026000090400000B0400000D04000000F002F877
:1002700000F045F80AA090E8000C82448344AAF1FB
:100280000107DA4501D100F03AF8AFF2090EBAE8F9
:100290000F0013F0010F18BFFB1A43F001031847BA
:1002A0007411000094110000103A24BF78C878C17E
:1002B000FAD8520724BF30C830C144BF04680C606C
:1002C000704700000023002400250026103A28BFB4
:1002D00078C1FBD8520728BF30C148BF0B607047B8
:1002E0001FB501F053F800F0A9F904000020002127
:1002F00001F036F8401C60601FBD10B510BD00F065
:1003000078F91146FFF7ECFF00F0F6FD00F0BCF9BC
:1003100003B4FFF7F2FF03BC00F000FA3F48804748
:100320003F480047FEE7FEE7FEE7FEE7FEE7FEE7A1
:10033000FEE7FEE7FEE7FEE7FEE7FEE7FEE7FEE795
:10034000FEE7FEE7FEE7FEE7FEE7FEE7FEE7FEE785
:10035000FEE7FEE7FEE7FEE7FEE7FEE7FEE7FEE775
:10036000FEE7FEE7FEE7FEE7FEE7FEE7FEE7FEE765
:10037000FEE7FEE7FEE7FEE7FEE7FEE7FEE7FEE755
:10038000FEE7FEE7FEE7FEE7FEE7FEE7FEE7FEE745
:10039000FEE7FEE7FEE7FEE7FEE7FEE7FEE7FEE735
:1003A000FEE7FEE7FEE7FEE7FEE7FEE7FEE7FEE725
:1003B000FEE7FEE7FEE7FEE7FEE7FEE7FEE7FEE715
:1003C000FEE7FEE7FEE7FEE7FEE7FEE7FEE7FEE705
:1003D000FEE7FEE7FEE7FEE7FEE7FEE7FEE7FEE7F5
:1003E000FEE7FEE7FEE7FEE7FEE7FEE7FEE7FEE7E5
:1003F000FEE7FEE7FEE7FEE7FEE7FEE7FEE7FEE7D5
:10040000FEE7FEE7FEE7FEE7FEE7FEE7FEE70000A9
:1004100004480549034A054B70470000E50C0000FD
:100420006D02000020020020200400202002002095
:100430000FB4044910B503AA029800F019F810BCD3
:100440005DF814FBA400002070B5064600F00CF81F
:100450000468054630460A22002100F01BF82C6093
:1004600070BD7047704770470048704728000020F3
:10047000074B70B50D467B4400F055F804462846FE
:1004800000F0B3F810B14FF0FF3070BD204670BDE2
:100490006F0A00002DE9F04791460F46804604465A
:1004A000002614F8015B2DB100F030F80068405DC3
:1004B000C007F6D12B2D02D02D2D18D0641E4A4630
:1004C0003946204600F042F827B13968A14201D1EF
:1004D000C7F800804FF0020471050BD54042002898
:1004E00003DDFFF7C1FF0460A007BDE8F08746F415
:1004F0008066E4E70028F8DAFFF7B6FF04606FF0E3
:100500000040F2E7004870472800002010B500F0D6
:1005100095F8001D10BD00BF490E000001694A1C7E
:1005200002610878704700B58FB0CDE90131002134
:10053000059105497944CDE903101146684600F05C
:1005400081F80FB000BD0000E5FFFFFF2DE9F05F6F
:10055000824615468B4600270AF10104B946007809
:10056000302801D09DB113E014F8010B0127782841
:1005700003D0582801D045B10AE00DB1102D07D1A4
:10058000002714F8010B102502E0082500E00A25D9
:100590000026B0460EE005FB080005FB06F101272A
:1005A0001FFA80F801EB1046B6F5803F00D3B9463C
:1005B00014F8010B294600F059F80028EBDABBF1DA
:1005C000000F05D00FB1641E00E05446CBF8004088
:1005D000B9F1000F06D0FFF747FF02210160C81EE6
:1005E000BDE8F09F48EA0640FAE7007B00F0800093
:1005F00070477546FFF786FFAE46050069465346CD
:1006000020F00700854618B020B5FFF701FFBDE8D0
:1006100020404FF000064FF000074FF000084FF069
:10062000000BAC46ACE8C009ACE8C009ACE8C009B6
:10063000ACE8C00921F007018D46704700487047BB
:10064000480000202DE9F04106460024D6E901705B
:10065000F5688046304603E04146B847641C3046A2
:10066000A8470028F8D12046BDE8F0813A2800D2FA
:10067000303820F02002412A01D3A2F1370088420D
:1006800001D34FF0FF30704710B50446AFF3008040
:100690002046BDE81040FFF73BBE00000000000010
:1006A00030B44FF0013C50F8042B51F8043BCCFA25
:1006B00052F4D51A20D1FCB950F8042B51F8043B60
:1006C000CCFA52F4D51A17D1B4B950F8042B51F81A
:1006D000043BCCFA52F4D51A0ED16CB950F8042B65
:1006E00051F8043BCCFA52F4D51A05D1002CDAD0DB
:1006F00030BC4FF00000704729BAB1FA81F111F017
:100700001801D1F120008440F2D1CA40CB4012F050
:10071000FF0213F0FF0330BCD01A704701491820C4
:10072000ABBEFEE7260002007047000080B500F077
:100730007FFA00F0DBF880BD2DE9F04381B040F294
:100740001427C2F2000739680D2830D140F2141482
:10075000C2F20004002060543868082831DB207899
:1007600000F0DF0053282CD1607800F0DF0054281F
:1007700027D160880DF10206ADF802003046FFF780
:1007800063FEA18880463046ADF80210FFF75CFE9C
:10079000E18881463046ADF80210FFF755FEB8F10A
:1007A000170FD8BFB9F13B0F16DD23A00AE04A1C92
:1007B0003A6040F21412C2F20002505401B0BDE897
:1007C000F08316A0FFF734FE23A0FFF731FE0020D0
:1007D000386001B0BDE8F08306463B28E5DC013413
:1007E000062500BF14F8010F00F0B0FD013DF9D15E
:1007F00010A0FFF71DFE40F29000C2F20000C0F80A
:10080000008040F29800C2F20000C0F8009040F270
:100810009C00C2F200000660D6E700BF0A45727273
:100820006F723A2057726F6E6720466F726D6174F7
:100830000A0D00000A0D00000A4572726F723A201C
:10084000496E76616C69642054696D6520496E70EB
:1008500075747465640A0D00496E707574204E6578
:10086000772054696D6528737448484D4D5353295A
:100870003A0A0D00C10645F21C41C4F2020107D537
:1008800010220A6040F21C22C2F20002012313600F
:10089000C00708BF70470120086040F20A10C2F28A
:1008A00000000188002904BF0F210180704700006B
:1008B00080B545F21440C4F202000068FFF7DAFF89
:1008C00080BD000000F0FEFA4EF20010CEF20000F3
:1008D0004FF4002101604EF21E41CEF20001A02231
:1008E0000A704FF080410160704700004EF20860CE
:1008F000C4F20F00016841F001010160016841F09C
:100900000401016002684EF60821C4F20F0142F0B2
:10091000200202600A68D207FCD000BF0A685207B2
:10092000FCD500BF0A689206FCD5026942F00102BC
:10093000026100BF0A69D207FCD044F20041C4F250
:1009400000010A6842F010020A60D1F81C2142F04E
:100950001002C1F81C2145F2104144F24B32C4F29E
:100960000201C4F64F42C1F81021D1F8142142F01F
:100970000102C1F81421D1F8002142F01102C1F89E
:100980000021D1F80C2142F01102C1F80C2151F8DC
:10099000102C22F0110241F8102C0A6922F01102E9
:1009A0000A610A6822F011020A6051F8082C22F04C
:1009B000110241F8082C51F80C2C22F0110241F8D8
:1009C0000C2C6FF0110241F8042C0A6842F011025D
:1009D0000A6046F20041C4F200010A6842F0700267
:1009E0000A60D1F81C2142F07002C1F81C2147F6C0
:1009F0009071C4F20C2101220A608A604A6050F8AA
:100A0000041C41F0010140F8041C00BFD0F8FC13A5
:100A1000C907FBD00420C4F20300816821F0010162
:100A2000816050F8041C41F0040140F8041C016886
:100A300041F002010160016821F0100101600168CC
:100A400041F4807101604FF44861416200214163CB
:100A5000416941F001014161016A41F00101016216
:100A6000816841F00101816070470000F0B540F2FB
:100A7000880440F21012C2F200040021C2F2000207
:100A8000A1802160116040F20901C2F20001A022A0
:100A90000A7040F20C01C2F2000101220A6040F229
:100AA0001401C2F200010A6040F21001C2F200011A
:100AB0000A6040F21C21C2F20001096809B340F249
:100AC0009C0CC2F2000CDCF8002046F2676EC6F205
:100AD000666E52FB0EF2DCF80030911001EBD27121
:100AE00053FB0EF2901000EBD27040F21802C2F2EB
:100AF0000002515C00EB8000A3EB4000A170105C91
:100B000039E040F29000C2F20000016846F26762EC
:100B1000C6F2666251FB02F100688B1003EBD17CD8
:100B200050FB02F3991040F2980E01EBD371C2F220
:100B3000000E01EB8101DEF8003040F21805A0EB59
:100B40004107DEF80000C2F2000553FB02F115F880
:100B50000C608B1050FB02F203EBD17193102671E5
:100B600003EBD272EB5D02EB8202E370695CA0EBF7
:100B70004200A170285C607040F22400C2F20000C4
:100B8000006818B1A07840F08000A070207840F292
:100B90000801C2F20001087040F2F800C2F2000041
:100BA0000021017040F20C10C2F200000160F0BDA3
:100BB00040F20411C2F200010120086040F2A001DD
:100BC000C2F200010A68531CB2F57A7F0B6006D1AD
:100BD00040F21822C2F2000210600020086040F2C9
:100BE0000810C2F20000018851B10188013901806A
:100BF000008828B947F69070C4F2082000210160EF
:100C000040F20A10C2F20000018881B10188013966
:100C100001800088002818BF704747F68070C4F232
:100C20004A20006840F20011C2F2000108607047DB
:100C30004EF26000C4F20F0001680269B2F1FF3F9A
:100C400006DD08051BD44CF20020C0F6EB301EE098
:100C500010052FD448F2004040F2000CC1F2D770CA
:100C6000C2F2000C5300CCF8000035D44CF2002046
:100C7000C0F6EB304902CCF800002AD4704741F2AC
:100C8000A832C1F38410C0F2000252F8200040F2F2
:100C90000002C2F200024B02106058BF7047C1F35D
:100CA000C3510131B0FBF1F040F20001C2F200018A
:100CB0000860704741F2A833C1F38410C0F200030A
:100CC00053F8200040F20003C2F20003490218600A
:100CD000D4D5C2F3C551E4E74902CFD5C2F386515A
:100CE000DFE7000082B04EF68851CEF200010A68BC
:100CF0004EF2700042F47002C4F20F000A6050F825
:100D0000101C0191019921F001010191019940F814
:100D1000101C00BF50F8201CC905FBD54FF4807192
:100D200040F8181C019921F03001019101990191BD
:100D3000019921F4F8610191019941F4A8610191AF
:100D4000019921F0F0610191019941F48001019133
:100D5000019921F420510191019921F4602101911F
:100D600001990191016841F0004101600168009121
:100D7000009941F080410091009921F48001009197
:100D8000009921F0FE510091009921F0700100912D
:100D900000990091009941F080710091009921F42F
:100DA00000510091019940F8101C0099016000BFAA
:100DB000D0F8F810C907FBD0016821F40061016088
:100DC00002B0704780B51C20C4F20300006800F038
:100DD00001F880BDC00708BF70472420C4F203009B
:100DE000016841F00101016040F29400C2F200008C
:100DF000012101607047000044F22C5044F24B3155
:100E0000C4F20000C4F64F4140F80C1C50F8081C16
:100E100041F0030140F8081C4FF6F461CFF6FF7172
:100E2000425842F00302425050F8101C41F00301B6
:100E300040F8101C50F8041C21F0030140F8041C79
:100E4000016821F0FF010160016841F011010160BA
:100E50004CF6C870C4F20000016821F00F01016077
:100E6000016801604CF22C00C4F20000416821F0DE
:100E700001014160416821F0200141602B2140F8CF
:100E8000081C1A2140F8041C016821F0600101606F
:100E9000016841F062010160016841F004010160F4
:100EA000016821F008010160016841F01001016052
:100EB000416841F440714160416841F00101416085
:100EC000704700004EF60C50BFF34F8FCEF200007B
:100ED0000168042201F4E061C0F2FA52114301609A
:100EE000BFF34F8F00BFFDE710B50446C0B200F05E
:100EF0002DFA204610BD0000FFF718FCFFF77CFF1D
:100F0000FFF796FE40F20000C2F20000006844F6CF
:100F1000D351C1F26201A0FB01014FF0FF3000EBA1
:100F200091100024B4EB106F0DD14EF21001CEF2EF
:100F3000000148604EF62350CEF20000E02202701D
:100F400007208C60086047F69875C4F20C25FFF7FF
:100F5000BBFC0FF2C830FFF76BFA2A4640F2182AA2
:100F600040F2940840F2FC0640F2001940F21403EB
:100F700040F2040540F20C0740F29C0BC2F2000A5A
:100F8000C2F20008C2F20006C2F20009C2F2000377
:100F9000C2F20005C2F20007C2F2000B17E000BF68
:100FA0003068012808BF3460D9F80000012808BF64
:100FB000C9F8004047F69070C4F24A20006840F239
:100FC0001C21B0FA80F04009C2F20001086040F232
:100FD0000410C2F20000006828B340F20410C2F20C
:100FE000000004604CF21800C4F200000068C00663
:100FF00019D400F0A3F940F2F901C2F2000108701F
:101000000878FFF799FB40F20C0740F2040540F224
:10101000140347F69872C2F20007C2F20005C2F24A
:101020000003C4F20C22DAF80000002851D0CAF8FC
:101030000040DBF800000130CBF80000DBF80000D6
:101040003C282BDB40F20810C2F200000521018091
:1010500047F690710120C4F20821086040F298011F
:10106000C2F20001086801300860CBF8004008684F
:101070003C2813DB40F29001C2F200010868013005
:10108000086040F29800C2F2000004600868182866
:10109000A2BF40F29000C2F20000046040F22401BE
:1010A000C2F200010868B0FA80F040090860FFF75A
:1010B000DDFC47F6987240F2140340F2040540F25A
:1010C0000C07C4F20C22C2F20003C2F20005C2F205
:1010D0000007D8F8000028B340F21000C8F800401C
:1010E000C2F20000006848B142F8084C186850B1DC
:1010F0001868B0FA80F0400918600DE0012042F84D
:10110000080C10600EE052F8040C002806BF012005
:1011100042F8040C42F8044C186818B952F8040C50
:1011200050B100BF306801283FF43AAFD9F8000051
:1011300001283FF435AF3DE72968386821B301281D
:1011400040D140F20901C2F200010878C0091060E4
:1011500008784000087040F21011C2F200010868DF
:101160000130086008680328DCDB40F21010C2F28E
:1011700000000460032040F208013860C2F2000160
:10118000087840080870CDE701283FD140F20901F6
:10119000C2F200010878C0091060087840000870A9
:1011A00040F21011C2F200010868013008600868BE
:1011B0000328B7DB40F21010C2F2000004600220E6
:1011C0003860AFE738680328ACD140F20801C2F2BA
:1011D00000010878C009106008784000087040F2EB
:1011E0001011C2F20001086801300860086809287F
:1011F00098DB2868013028602868022865D140F211
:101200000800C2F20000302101707CE0386802283A
:1012100017D140F2F801C2F200010878C00910604D
:1012200008784000087040F21011C2F2000108680E
:101230000130086008680628FFF674AF03203860A4
:1012400065E0386803287FF46DAF40F20801C2F210
:1012500000010878C009106008784000087040F26A
:101260001011C2F2000108680130086008680828FF
:10127000FFF658AF40F20C1CC2F2000CDCF8000084
:1012800040F288010130CCF8000040F21010C2F2A8
:1012900000000460DCF80000C2F20001085C40F2CB
:1012A0000801C2F200010870DCF800000C28FFF60B
:1012B00039AF40F21000C2F200003C60046040F21E
:1012C0000C10C2F2000004602CE72868032806D145
:1012D00040F20800C2F200005221017013E02868B9
:1012E000042806D140F20800C2F200000621017075
:1012F00009E040F21000C2F200002C60046040F2ED
:101300000800C2F20000014600784008087040F270
:101310001010C2F20000046004E700BF496E70754F
:1013200074204E65772054696D6520287374484891
:101330004D4D5353293A0A0D000000004CF20000B5
:10134000C4F200000068C0B2704700004CF2000117
:10135000C4F200018A699206FCD40860704700005C
:1013600010B500290AD00878002807D0054878442D
:10137000FFF796F9002801D0002010BD02487844FC
:1013800010BD0000C6000000BE000000F1EE100A13
:101390004FF6FF71C0F2C03120EA010040F040700A
:1013A000E1EE100A7047000000000000000000009D
:1013B000000000000000000000000000000000002D
:1013C00000093D0000803E0000004B00404B4C00F7
:1013D00000204E00808D5B0000C05D00008070002A
:1013E00000127A0000007D0080969800001BB70074
:1013F0000080BB00C0E8CE00647ADA000024F4006C
:101400000000FA0080A81201002D310100366E01A3
:1014100040787D01481500000000002028000000F1
:10142000A80200007015000028000020F80300004A
:10143000C40200001001000043000000F8FFFFFF9D
:1014400000404040404040404040414141414140D7
:10145000404040404040404040404040404040408C
:10146000400502020202020202020202020202021B
:101470000220202020202020202020020202020220
:101480000202909090909090101010101010101078
:101490001010101010101010101010100202020284
:1014A00002028888888888880808080808080808C8
:1014B00008080808080808080808080802020202C4
:1014C00040000000000000000000000000000000DC
:1014D000000000000000000000000000000000000C
:1014E00000000000000000000000000000000000FC
:1014F00000000000000000000000000000000000EC
:1015000000000000000000000000000000000000DB
:1015100000000000000000000000000000000000CB
:1015200000000000000000000000000000000000BB
:1015300000000000000000000000000000000000AB
:1015400000000000000000000024F4000100000082
:101550000280000001000000010000000100000006
:101560007D603E7A635B5F707F7B0000010000005E
:040000050000026D88
:00000001FF
